{
  "contractName": "MyVoting",
  "abi": [
    {
      "inputs": [],
      "payable": false,
      "stateMutability": "nonpayable",
      "type": "constructor"
    },
    {
      "anonymous": false,
      "inputs": [
        {
          "indexed": true,
          "internalType": "uint256",
          "name": "_candidateId",
          "type": "uint256"
        }
      ],
      "name": "votedEvent",
      "type": "event"
    },
    {
      "constant": true,
      "inputs": [],
      "name": "candidateCount",
      "outputs": [
        {
          "internalType": "uint256",
          "name": "",
          "type": "uint256"
        }
      ],
      "payable": false,
      "stateMutability": "view",
      "type": "function"
    },
    {
      "constant": true,
      "inputs": [
        {
          "internalType": "uint256",
          "name": "",
          "type": "uint256"
        }
      ],
      "name": "candidates",
      "outputs": [
        {
          "internalType": "uint256",
          "name": "id",
          "type": "uint256"
        },
        {
          "internalType": "string",
          "name": "name",
          "type": "string"
        },
        {
          "internalType": "uint256",
          "name": "voteCount",
          "type": "uint256"
        }
      ],
      "payable": false,
      "stateMutability": "view",
      "type": "function"
    },
    {
      "constant": true,
      "inputs": [
        {
          "internalType": "address",
          "name": "",
          "type": "address"
        }
      ],
      "name": "voters",
      "outputs": [
        {
          "internalType": "bool",
          "name": "",
          "type": "bool"
        }
      ],
      "payable": false,
      "stateMutability": "view",
      "type": "function"
    },
    {
      "constant": false,
      "inputs": [
        {
          "internalType": "string",
          "name": "_name",
          "type": "string"
        }
      ],
      "name": "addCandidate",
      "outputs": [],
      "payable": false,
      "stateMutability": "nonpayable",
      "type": "function"
    },
    {
      "constant": false,
      "inputs": [
        {
          "internalType": "uint256",
          "name": "_candidateId",
          "type": "uint256"
        }
      ],
      "name": "vote",
      "outputs": [],
      "payable": false,
      "stateMutability": "nonpayable",
      "type": "function"
    },
    {
      "constant": true,
      "inputs": [
        {
          "internalType": "uint256",
          "name": "_candidateId",
          "type": "uint256"
        }
      ],
      "name": "getCandidateDetails",
      "outputs": [
        {
          "internalType": "uint256",
          "name": "",
          "type": "uint256"
        },
        {
          "internalType": "string",
          "name": "",
          "type": "string"
        },
        {
          "internalType": "uint256",
          "name": "",
          "type": "uint256"
        }
      ],
      "payable": false,
      "stateMutability": "view",
      "type": "function"
    }
  ],
  "bytecode": "0x608060405234801561001057600080fd5b5060408051808201909152600b81526a43616e646964617465203160a81b6020820152610045906001600160e01b036100b216565b60408051808201909152600b81526a21b0b73234b230ba32901960a91b6020820152610079906001600160e01b036100b216565b60408051808201909152600b81526a43616e646964617465203360a81b60208201526100ad906001600160e01b036100b216565b6101ae565b600280546001908101918290556040805160608101825283815260208082018681526000838501819052958652848252929094208151815591518051919492936101029390850192910190610113565b506040820151816002015590505050565b828054600181600116156101000203166002900490600052602060002090601f016020900481019282601f1061015457805160ff1916838001178555610181565b82800160010185558215610181579182015b82811115610181578251825591602001919060010190610166565b5061018d929150610191565b5090565b6101ab91905b8082111561018d5760008155600101610197565b90565b6105bf806101bd6000396000f3fe608060405234801561001057600080fd5b50600436106100625760003560e01c80630121b93f1461006757806327f9fd50146100865780633477ee2e14610129578063462e91ec14610146578063a3ec138d146101ec578063a9a981a314610226575b600080fd5b6100846004803603602081101561007d57600080fd5b5035610240565b005b6100a36004803603602081101561009c57600080fd5b5035610310565b6040518084815260200180602001838152602001828103825284818151815260200191508051906020019080838360005b838110156100ec5781810151838201526020016100d4565b50505050905090810190601f1680156101195780820380516001836020036101000a031916815260200191505b5094505050505060405180910390f35b6100a36004803603602081101561013f57600080fd5b50356103c7565b6100846004803603602081101561015c57600080fd5b81019060208101813564010000000081111561017757600080fd5b82018360208201111561018957600080fd5b803590602001918460018302840111640100000000831117156101ab57600080fd5b91908080601f016020809104026020016040519081016040528093929190818152602001838380828437600092019190915250929550610473945050505050565b6102126004803603602081101561020257600080fd5b50356001600160a01b03166104d4565b604080519115158252519081900360200190f35b61022e6104e9565b60408051918252519081900360200190f35b3360009081526020819052604090205460ff1615610299576040805162461bcd60e51b8152602060048201526011602482015270165bdd48185b1c9958591e481d9bdd1959607a1b604482015290519081900360640190fd5b6000811180156102ab57506002548111155b6102b457600080fd5b33600090815260208181526040808320805460ff191660019081179091558484529182905280832060020180549092019091555182917ffff3c900d938d21d0990d786e819f29b8d05c1ef587b462b939609625b684b1691a250565b60008181526001602081815260408084208054600280830154928601805485519781161561010002600019011691909104601f810186900486028701860190945283865260609587959294919392909184918301828280156103b35780601f10610388576101008083540402835291602001916103b3565b820191906000526020600020905b81548152906001019060200180831161039657829003601f168201915b505050505091509250925092509193909250565b600160208181526000928352604092839020805481840180548651600296821615610100026000190190911695909504601f810185900485028601850190965285855290949193929091908301828280156104635780601f1061043857610100808354040283529160200191610463565b820191906000526020600020905b81548152906001019060200180831161044657829003601f168201915b5050505050908060020154905083565b600280546001908101918290556040805160608101825283815260208082018681526000838501819052958652848252929094208151815591518051919492936104c393908501929101906104ef565b506040820151816002015590505050565b60006020819052908152604090205460ff1681565b60025481565b828054600181600116156101000203166002900490600052602060002090601f016020900481019282601f1061053057805160ff191683800117855561055d565b8280016001018555821561055d579182015b8281111561055d578251825591602001919060010190610542565b5061056992915061056d565b5090565b61058791905b808211156105695760008155600101610573565b9056fea265627a7a7231582079f41d7d8ec911eb18e307776cec7eaae49a316b07d0396da8fe6294b0288a0c64736f6c63430005100032",
  "source": "//SPDX-License-Identifier: MIT\r\n pragma solidity >=0.5.0 <0.8.27;\r\n contract MyVoting {\r\n struct Candidate {\r\n uint256 id;\r\n string name;\r\n uint256 voteCount;\r\n }\r\n mapping(address => bool) public voters;\r\n mapping(uint256 => Candidate) public candidates;\r\n uint256 public candidateCount;\r\n event votedEvent(uint256 indexed _candidateId);\r\n constructor() public {\r\n addCandidate(\"Candidate 1\");\r\n addCandidate(\"Candidate 2\");\r\n addCandidate(\"Candidate 3\");\r\n }\r\n function addCandidate(string memory _name) public {\r\n candidateCount++;\r\n candidates[candidateCount] = Candidate(candidateCount, _name, 0);\r\n }\r\n function vote(uint256 _candidateId) public {\r\n require(!voters[msg.sender], \"You already voted\");\r\nrequire(_candidateId > 0 && _candidateId <= candidateCount);\r\n voters[msg.sender] = true;\r\n candidates[_candidateId].voteCount++;\r\n emit votedEvent(_candidateId);\r\n }\r\n function getCandidateDetails(uint _candidateId) public view returns (uint,string memory,uint)\r\n {\r\n return (candidates[_candidateId].id, candidates[_candidateId].name,\r\n candidates[_candidateId].voteCount);\r\n }\r\n }",
  "sourcePath": "Z:\\bcDemo\\blockchain-toolkit\\contracts\\MyVoting.sol",
  "compiler": {
    "name": "solc",
    "version": "0.5.16+commit.9c3226ce.Emscripten.clang"
  },
  "schemaVersion": "3.4.16",
  "updatedAt": "2024-11-26T14:57:10.044Z",
  "networkType": "ethereum",
  "devdoc": {
    "methods": {}
  },
  "userdoc": {
    "methods": {}
  }
}