{
    "contractName": "MyBanking",
    "abi": [
        {
            "inputs": [],
            "stateMutability": "nonpayable",
            "type": "constructor"
        },
        {
            "inputs": [
                {
                    "internalType": "uint256",
                    "name": "amount",
                    "type": "uint256"
                }
            ],
            "name": "addAmount",
            "outputs": [],
            "stateMutability": "nonpayable",
            "type": "function"
        },
        {
            "inputs": [],
            "name": "checkBalance",
            "outputs": [
                {
                    "internalType": "uint256",
                    "name": "",
                    "type": "uint256"
                }
            ],
            "stateMutability": "view",
            "type": "function"
        },
        {
            "inputs": [
                {
                    "internalType": "uint256",
                    "name": "amount",
                    "type": "uint256"
                }
            ],
            "name": "withdrawAmount",
            "outputs": [],
            "stateMutability": "nonpayable",
            "type": "function"
        }
    ],
    "bytecode": "608080604052346018575f8055610122908161001d8239f35b5f80fdfe60808060405260043610156011575f80fd5b5f3560e01c9081630562b9f714608b575080630912f2321460575763c71daccb146039575f80fd5b346053575f36600319011260535760205f54604051908152f35b5f80fd5b3460535760203660031901126053575f5460043581018091116077575f55005b634e487b7160e01b5f52601160045260245ffd5b3460535760203660031901126053576004355f549182821160b3575081039081116077575f55005b62461bcd60e51b8152602060048201526014602482015273496e73756666696369656e742062616c616e636560601b6044820152606490fdfea264697066735822122097d1fd11ef26e520ca8c8708eccc4d9c857505d0465786f0dcc132b78b6a4bec64736f6c634300081c0033",
    "sourcePath": "z:/bcDemo/blockchain-toolkit/contracts/MyBanking.sol",
    "compiler": {
        "name": "solc",
        "version": "0.8.28+commit.7893614a"
    },
    "functionHashes": {
        "addAmount(uint256)": "0912f232",
        "checkBalance()": "c71daccb",
        "withdrawAmount(uint256)": "0562b9f7"
    },
    "gasEstimates": {
        "creation": {
            "codeDepositCost": "58000",
            "executionCost": "5122",
            "totalCost": "63122"
        },
        "external": {
            "addAmount(uint256)": "24390",
            "checkBalance()": "2296",
            "withdrawAmount(uint256)": "24393"
        }
    }
}